:100000000C942A000C9447000C9447000C94470071
:100010000C9447000C9447000C9447000C94F11981
:100020000C9447000C94241A0C9447000C9447003D
:100030000C9447000C9447000C9447000C94470024
:100040000C9447000C9447000C9447000C94470014
:100050000C94470011241FBECFE5D8E0DEBFCDBF12
:1000600011E0A0E6B0E0EAE0F9E302C005900D92ED
:10007000A437B107D9F711E0A4E7B1E001C01D92A0
:10008000A737B107E1F70E94A3050C94831C0C94D9
:100090000000EF92FF920F931F937B018C0120E0F1
:1000A00030E040E05FE40E94490388238CF0C801FF
:1000B000B70120E030E040E05FE40E94C1010E940F
:1000C000A9039B01AC01205030404040504806C07D
:1000D000C801B7010E94A9039B01AC01B901CA0183
:1000E0001F910F91FF90EF900895A0E0B0E0EBE733
:1000F000F0E00C94071CDC012B01FA019C9192307A
:1001000008F439C1EB018881823008F433C194309E
:1001100069F4843009F02FC111969C91119789815F
:10012000981709F428C1ABE5B1E025C1843009F482
:1001300021C18230A9F4923009F01DC19A01AD01AC
:1001400088E0EA010990AE01E90109929E0181501F
:10015000C1F7E201898111969C918923818308C1AD
:10016000923009F407C112962D903C901397EB0141
:100170008A819B811496AD90BD90CD90DC901797AD
:10018000EC80FD800E811F819101281B390BB90184
:1001900037FF04C066277727621B730B6032710537
:1001A0000CF061C0121613066CF537014801062EDB
:1001B00004C096948794779467940A94D2F721E0C8
:1001C00030E040E050E004C0220F331F441F551FB1
:1001D0006A95D2F721503040404050402E213F21B7
:1001E00040235123211531054105510521F021E01E
:1001F00030E040E050E079018A01E628F72808293C
:1002000019293CC0232BD1F1260E371E350146019A
:10021000062E04C096948794779467940A94D2F734
:1002200021E030E040E050E004C0220F331F441FC3
:10023000551F6A95D2F721503040404050402A2146
:100240003B214C215D21211531054105510521F04E
:1002500021E030E040E050E059016A01A628B728CB
:10026000C828D9280BC0821593052CF01C01AA249C
:10027000BB24650103C0EE24FF24870111969C91E5
:10028000D20111968C91981709F445C0992339F041
:10029000A80197012A193B094C095D0906C0A6016E
:1002A00095012E193F09400B510B57FD08C01182D3
:1002B0003382228224833583468357831DC081E0A5
:1002C00081833382228288279927DC01821B930B4A
:1002D000A40BB50B84839583A683B7830DC0220F2F
:1002E000331F441F551F24833583468357838281E0
:1002F000938101979383828324813581468157813D
:10030000DA01C9010197A109B1098F5F9F4FAF4F72
:10031000BF4328F30BC0918333822282EA0CFB1C7B
:100320000C1D1D1DE482F5820683178383E0808304
:10033000248135814681578157FF1AC0C901AA27F8
:1003400097FDA095BA2F81709070A070B0705695EF
:10035000479537952795822B932BA42BB52B848318
:100360009583A683B7838281938101969383828349
:10037000DF0101C0D201CD01CDB7DEB7E2E10C94BF
:10038000231CA0E2B0E0E7ECF1E00C94131C6983BD
:100390007A838B839C832D833E834F835887E9E048
:1003A000EE2EF12CEC0EFD1ECE010196B7010E943F
:1003B000D2048E010F5E1F4FCE010596B8010E9438
:1003C000D2048A8991E089278A8BC701B801AE01DE
:1003D000475E5F4F0E9475000E94FD03A096E6E015
:1003E0000C942F1CA0E2B0E0E8EFF1E00C94131C99
:1003F00069837A838B839C832D833E834F835887C5
:10040000F9E0EF2EF12CEC0EFD1ECE010196B701A6
:100410000E94D2048E010F5E1F4FCE010596B801D7
:100420000E94D204C701B801AE01475E5F4F0E942F
:1004300075000E94FD03A096E6E00C942F1CA0E23C
:10044000B0E0E5E2F2E00C94071C69837A838B83C9
:100450009C832D833E834F835887CE010196BE0136
:10046000675F7F4F0E94D204CE010596BE016F5E8A
:100470007F4F0E94D2049985923088F0898982301A
:10048000C8F0943019F4823051F404C0843029F457
:10049000923081F48BE591E0C6C0923049F420E0BF
:1004A0009A858A89981321E02A87CE010996BBC0D4
:1004B000823049F420E09A858A89981321E02A8BBA
:1004C000CE014196B0C02D843E844F8458886D88FB
:1004D0007E888F88988CEE24FF248701AA24BB2471
:1004E000650140E050E060E070E0E0E0F0E0C10174
:1004F00081709070892BE9F0E60CF71C081D191D1E
:100500009A01AB012A0D3B1D4C1D5D1D80E090E062
:10051000A0E0B0E0E614F7040805190520F481E036
:1005200090E0A0E0B0E0BA01A901480F591F6A1F8E
:100530007B1FAA0CBB1CCC1CDD1C97FE08C081E0F5
:1005400090E0A0E0B0E0A82AB92ACA2ADB2A3196B6
:10055000E032F10549F0660C771C881C991C569412
:10056000479437942794C3CFFA85EA892B893C892D
:100570008B859C85280F391F2E5F3F4F17C0CA01FE
:1005800081709070892B61F016950795F794E79428
:1005900080E090E0A0E0B0E8E82AF92A0A2B1B2BC3
:1005A00076956795579547952F5F3F4F77FDE7CF36
:1005B0000CC0440F551F661F771F17FD4160EE0CDE
:1005C000FF1C001F111F21503040403090E05907A0
:1005D00090E0690790E4790760F32B8F3C8FDB0193
:1005E000CA018F779070A070B07080349105A1051A
:1005F000B10561F447FD0AC0E114F10401051105DC
:1006000029F0405C5F4F6F4F7F4F40781A8EFE1786
:1006100011F081E08A8F4D8F5E8F6F8F78A383E01A
:10062000898FCE0149960E94FD03A096E2E10C94C9
:10063000231CA8E1B0E0EFE1F3E00C94131C698304
:100640007A838B839C832D833E834F83588789E0F5
:10065000E82EF12CEC0EFD1ECE010196B7010E9492
:10066000D2048E010F5E1F4FCE010596B8010E9485
:10067000D2048985823040F08989823028F0C70110
:10068000B8010E944A0501C08FEF6896E6E00C941D
:100690002F1CA8E1B0E0EFE4F3E00C94131C698395
:1006A0007A838B839C832D833E834F83588789E095
:1006B000E82EF12CEC0EFD1ECE010196B7010E9432
:1006C000D2048E010F5E1F4FCE010596B8010E9425
:1006D000D2048985823040F08989823028F0C701B0
:1006E000B8010E944A0501C08FEF6896E6E00C94BD
:1006F0002F1CA8E1B0E0EFE7F3E00C94131C698332
:100700007A838B839C832D833E834F83588789E034
:10071000E82EF12CEC0EFD1ECE010196B7010E94D1
:10072000D2048E010F5E1F4FCE010596B8010E94C4
:10073000D2048985823040F08989823028F0C7014F
:10074000B8010E944A0501C081E06896E6E00C9479
:100750002F1CACE0B0E0EFEAF3E00C94171C6983C7
:100760007A838B839C83CE010196BE016B5F7F4FA2
:100770000E94D2048D81823061F1823050F1843048
:1007800021F48E81882351F12EC02F81388537FDC9
:1007900020C06E812F3131051CF06623F9F023C093
:1007A0008EE190E0821B930B29853A854B855C8511
:1007B00004C056954795379527958A95D2F76623B5
:1007C000B1F050954095309521953F4F4F4F5F4F79
:1007D0000EC020E030E040E050E009C02FEF3FEFD6
:1007E0004FEF5FE704C020E030E040E050E8B9019F
:1007F000CA012C96E2E00C94331CDF92EF92FF9238
:100800000F931F93FC01E480F58006811781D1804E
:100810008081823048F480E090E0A0E1B0E0E82AF6
:10082000F92A0A2B1B2BA5C0843009F49FC0823003
:1008300021F4EE24FF24870105C0E114F104010531
:10084000110519F4E0E0F0E096C0628173819FEF3A
:10085000623879070CF05BC022E83FEF261B370BAC
:100860002A3131052CF020E030E040E050E02AC091
:10087000B801A701022E04C0769567955795479554
:100880000A94D2F781E090E0A0E0B0E004C0880FC5
:10089000991FAA1FBB1F2A95D2F70197A109B10979
:1008A0008E219F21A023B1230097A105B10521F03E
:1008B00081E090E0A0E0B0E09A01AB01282B392B59
:1008C0004A2B5B2BDA01C9018F779070A070B07052
:1008D00080349105A105B10539F427FF09C0205CDA
:1008E0003F4F4F4F5F4F04C0215C3F4F4F4F5F4F13
:1008F000E0E0F0E02030A0E03A07A0E04A07A0E402
:100900005A0710F0E1E0F0E079018A0127C0603871
:10091000710564F5FB01E158FF4FD801C7018F77DE
:100920009070A070B07080349105A105B10539F4C4
:10093000E7FE0DC080E490E0A0E0B0E004C08FE3EB
:1009400090E0A0E0B0E0E80EF91E0A1F1B1F17FFA1
:1009500005C016950795F794E794319687E01695AC
:100960000795F794E7948A95D1F705C0EE24FF2404
:100970008701EFEFF0E06E2F679566276795902F60
:100980009F77D794DD24D7948E2F8695492F462BB9
:10099000582F5D29B701CA011F910F91FF90EF9069
:1009A000DF900895FC01DB01408151812281622F9B
:1009B0006F7770E0221F2227221F9381892F880FD3
:1009C000822B282F30E0991F9927991F11969C930D
:1009D000119721153105A9F54115510561057105DD
:1009E00011F482E037C082E89FEF13969C938E93B8
:1009F00012979A01AB0167E0220F331F441F551F66
:100A00006A95D1F783E08C930DC0220F331F441FEA
:100A1000551F12968D919C911397019713969C9355
:100A20008E931297203080E0380780E0480780E4FA
:100A3000580758F314962D933D934D935C93179755
:100A400008952F3F310579F4411551056105710570
:100A500019F484E08C93089564FF03C081E08C93C3
:100A600012C01C9210C02F57304013963C932E9307
:100A7000129783E08C9387E0440F551F661F771F02
:100A80008A95D1F7706414964D935D936D937C9322
:100A9000179708951F93DC01FB019C91923008F495
:100AA00047C08081823008F443C0943051F41196DD
:100AB0001C91843099F58181682F70E0611B710968
:100AC0003FC0843021F0923031F48230B9F181811D
:100AD000882389F12DC011961C9111978230F1F075
:100AE00081811817D9F412962D913C911397828128
:100AF00093818217930794F028173907BCF0149656
:100B00008D919D910D90BC91A02D248135814681C0
:100B10005781281739074A075B0718F4112341F05A
:100B20000AC082179307A407B50740F4112319F0F0
:100B300061E070E005C06FEF7FEF02C060E070E041
:100B4000CB011F910895DF93CF93CDB7DEB70E94FD
:100B5000AC050E94EE05FDCFDF93CF93CDB7DEB796
:100B60002A970FB6F894DEBF0FBECDBFCE01019617
:100B70009F838E83E3E6F1E0F987E887F5E0FA8763
:100B8000E885F98500808885998501969987888709
:100B9000EE81FF8100828E819F8101969F838E83EB
:100BA0009A8591509A87EA85EE2351F7AFE5B0E038
:100BB000EFE5F0E0808180688C930E94980FCE0171
:100BC00001960E94E61A0E9423062A960FB6F89410
:100BD000DEBF0FBECDBFCF91DF910895DF93CF93DE
:100BE00000D0CDB7DEB719820E94E71920E630E0C9
:100BF00080E060E0A9010E94AB192FE630E081E0BF
:100C000060E0A9010E94AB190E940C0E89838981C2
:100C10008B3219F089818D32B9F70E943D078A83A2
:100C20008A81882319F40E94CE0708C089818B32FB
:100C300019F40E947B0702C00E9423060F900F90B8
:100C4000CF91DF910895DF93CF93CDB7DEB7A5970E
:100C50000FB6F894DEBF0FBECDBF188A198A1A8A64
:100C60001B8A86E0FE017496DF01982F1D929A95EB
:100C7000E9F71A8E1B8E1C8E1D8E86E0FE017E9675
:100C8000DF01982F1D929A95E9F71CA21DA21F86DD
:100C90000E94E71920E830E080E060E0A9010E94AE
:100CA000AB1981E060E00E946919CE0140969E0177
:100CB0002C5D3F4FB9010E94B50821E930E080E08A
:100CC00060E0A9010E94AB1922EA30E081E060E017
:100CD000A9010E94AB19CE014A969E012B5D3F4FA0
:100CE000B9010E94B5089CA18DA1981709F483C091
:100CF0000E94E7192EEA30E080E060E0A9010E943E
:100D0000AB1927EB30E081E060E0A9010E94AB194C
:100D100080E090E0AAE7B4E48B879C87AD87BE872C
:100D20006B857C858D859E8520E030E04AEF54E41C
:100D30000E941F02DC01CB018F839887A987BA87A5
:100D40006F81788589859A8520E030E040E85FE30F
:100D50000E94790388232CF481E090E09E838D83A8
:100D60003FC06F81788589859A8520E03FEF4FE706
:100D700057E40E94190318164CF56B857C858D8508
:100D80009E8520E030E040E251E40E941F02DC0139
:100D9000CB01BC01CD010E944900DC01CB019E8347
:100DA0008D830FC088EC90E09C838B838B819C812A
:100DB0000197F1F79C838B838D819E8101979E83A0
:100DC0008D838D819E81009769F74AC06F817885F8
:100DD00089859A850E944900DC01CB019E838D8321
:100DE0008D819E819A83898389819A810197F1F708
:100DF0009A83898335C04CA1CE0140969E01265E20
:100E00003F4FB9010E94020A8F870E94E7198F8520
:100E10008823B1F023EC30E080E060E0A9010E947B
:100E2000AB192CEC30E081E060E0A9010E94AB1925
:100E300080E30E94501BCE0140960E94761B0EC09C
:100E40002EEA30E080E060E0A9010E94AB1927EBB8
:100E500030E081E060E0A9010E94AB190E947F0AA6
:100E60008F85882309F414CFA5960FB6F894DEBFBA
:100E70000FBECDBFCF91DF910895DF93CF9300D008
:100E800000D0CDB7DEB783E08A831FC00E9402087E
:100E900089838981813371F40E94E71929ED30E05B
:100EA00080E060E0A9010E94AB190E947F0A81E006
:100EB0008B8319C00E94E71928EE30E080E060E0E3
:100EC000A9010E94AB190E947F0A8A818C838C81C0
:100ED000882311F081E08C838C819A8191509A83D0
:100EE0008823A1F61B828B810F900F900F900F909B
:100EF000CF91DF910895DF93CF9300D00F92CDB7BC
:100F0000DEB783E090E09A83898382E30E94501BDE
:100F10000E94E71926EF30E080E060E0A9010E941E
:100F2000AB190E943C0A0E94E71928E031E080E0FA
:100F300060E0A9010E94AB1926E131E081E068E0A0
:100F4000A9010E94AB190AC00E947F0A81E068E0F3
:100F50000E94691989819A810E94C4191B82898122
:100F60009A81009711F081E08B8389819A810197A2
:100F70009A8389838B81882339F70E94E71928E1B6
:100F800031E080E060E0A9010E94AB190E943C0AB8
:100F90000F900F900F90CF91DF910895DF93CF9333
:100FA00000D00F92CDB7DEB71A82198283E30E9478
:100FB000501B0E94E7192AE231E080E060E0A901BD
:100FC0000E94AB192AE331E081E060E0A9010E94B0
:100FD000AB1902C00E943C0A1B8289819A8184302D
:100FE000910514F481E08B8389819A8101969A831B
:100FF00089838B81882371F70F900F900F90CF9189
:10100000DF910895DF93CF93CDB7DEB76A970FB620
:10101000F894DEBF0FBECDBF1F86188A198A1A8AC0
:101020001B8A86E0FE017496DF01982F1D929A9527
:10103000E9F71A8E0E94E7192BE431E080E060E0C6
:10104000A9010E94AB1981E060E00E946919CE01FC
:1010500040969E01265E3F4FB9010E94B50881E38C
:101060000E94501B80E090E0A0E2B1E48B879C8757
:10107000AD87BE876B857C858D859E8520E030E0C1
:101080004AEF54E40E941F02DC01CB018F83988752
:10109000A987BA876F81788589859A8520E030E0B5
:1010A00040E85FE30E94790388232CF481E090E01C
:1010B0009E838D833FC06F81788589859A8520E0E6
:1010C0003FEF4FE757E40E94190318164CF56B8564
:1010D0007C858D859E8520E030E040E251E40E94D1
:1010E0001F02DC01CB01BC01CD010E944900DC01E3
:1010F000CB019E838D830FC088EC90E09C838B8313
:101100008B819C810197F1F79C838B838D819E81DC
:1011100001979E838D838D819E81009769F714C00E
:101120006F81788589859A850E944900DC01CB0111
:101130009E838D838D819E819A83898389819A8103
:101140000197F1F79A838983CE0140960E94761B1E
:101150000E94671B8F878F856A960FB6F894DEBF53
:101160000FBECDBFCF91DF910895FF920F931F93D4
:10117000DF93CF93CDB7DEB7A0970FB6F894DEBF5D
:101180000FBECDBF9E8F8D8F78A36F8F80E090E0D4
:10119000A8ECB2E4898F9A8FAB8FBC8F698D7A8D62
:1011A0008B8D9C8D20E030E04AEF54E40E941F02BA
:1011B000DC01CB018D8B9E8BAF8BB88F6D897E89C7
:1011C0008F89988D20E030E040E85FE30E9479034A
:1011D00088232CF481E090E09C8B8B8B3FC06D8941
:1011E0007E898F89988D20E03FEF4FE757E40E947A
:1011F000190318164CF5698D7A8D8B8D9C8D20E026
:1012000030E040E251E40E941F02DC01CB01BC014E
:10121000CD010E944900DC01CB019C8B8B8B0FC060
:1012200088EC90E09A8B898B89899A890197F1F7EC
:101230009A8B898B8B899C8901979C8B8B8B8B8953
:101240009C89009769F714C06D897E898F89988D74
:101250000E944900DC01CB019C8B8B8B8B899C8984
:10126000988B8F878F8598890197F1F7988B8F8757
:10127000EF8DF8A11082EF8DF8A1F0802F2D30E0D6
:101280008D8D9E8D8C01020F131F0E940C0EF80194
:1012900080838F2D8F5FEF8DF8A18083EF8DF8A174
:1012A0008081882F90E09C01215030408D8D9E8D53
:1012B000FC01E20FF31F80818D3019F08AE20E9459
:1012C000C51480E090E0AAE7B3E48B879C87AD87E4
:1012D000BE876B857C858D859E8520E030E04AEF5A
:1012E00054E40E941F02DC01CB018F839887A987F9
:1012F000BA876F81788589859A8520E030E040E85B
:101300005FE30E94790388232CF481E090E09E83C0
:101310008D833FC06F81788589859A8520E03FEF76
:101320004FE757E40E94190318164CF56B857C852E
:101330008D859E8520E030E040E251E40E941F024E
:10134000DC01CB01BC01CD010E944900DC01CB01D5
:101350009E838D830FC088EC90E09C838B838B8170
:101360009C810197F1F79C838B838D819E810197EE
:101370009E838D838D819E81009769F714C06F8154
:10138000788589859A850E944900DC01CB019E837E
:101390008D838D819E819A83898389819A8101972A
:1013A000F1F79A838983EF8DF8A18081882F90E0EF
:1013B0009C01215030408D8D9E8DFC01E20FF31F6A
:1013C00080818D3009F057CFEF8DF8A18081815059
:1013D000EF8DF8A18083EF8DF8A18081282F30E078
:1013E0008D8D9E8DFC01E20FF31F1082A0960FB62B
:1013F000F894DEBF0FBECDBFCF91DF911F910F914B
:10140000FF900895DF93CF93CDB7DEB727970FB640
:10141000F894DEBF0FBECDBF9C838B837E836D832C
:101420004F831A8281E0898319C08A81282F30E096
:101430008B819C81FC01E20FF31F40818A81282F60
:1014400030E08D819E81FC01E20FF31F80814817FF
:1014500011F0198207C08A818F5F8A839A818F81F8
:10146000981718F3898127960FB6F894DEBF0FBE40
:10147000CDBFCF91DF910895DF93CF93CDB7DEB786
:101480002B970FB6F894DEBF0FBECDBFCE010196ED
:1014900098878F83E8E6F1E0FA87E987F6E0FB8733
:1014A000E985FA85008089859A8501969A878987DA
:1014B000EF81F88500828F819885019698878F83C8
:1014C0009B8591509B87EB85EE2351F7CE010196CA
:1014D0000E94571A82EC9AE00E94D01A80917401FF
:1014E0008230E0F3109274010E94B11A2B960FB66D
:1014F000F894DEBF0FBECDBFCF91DF910895DF938B
:10150000CF93CDB7DEB72B970FB6F894DEBF0FBEE3
:10151000CDBFCE01019698878F83EEE6F1E0FA8782
:10152000E987F6E0FB87E985FA85008089859A8559
:1015300001969A878987EF81F88500828F81988547
:10154000019698878F839B8591509B87EB85EE232F
:1015500051F7CE0101960E94571A82EC9AE00E9440
:10156000D01A809174018823E1F3109274010E94D3
:10157000B11A2B960FB6F894DEBF0FBECDBFCF9138
:10158000DF910895DF93CF93CDB7DEB780917401DB
:101590008F5F80937401CF91DF910895DF93CF9394
:1015A00000D000D00F92CDB7DEB789836A834B831A
:1015B0008A81883008F0D5C08981843008F0D1C094
:1015C0008981282F30E03D832C838C819D8181305F
:1015D000910509F443C02C813D81223031052CF462
:1015E0008C819D81009771F0BCC02C813D8122309F
:1015F000310509F45FC08C819D818330910509F428
:1016000085C0AFC08B818130A1F4AAE3B0E0EAE3EA
:10161000F0E08081482F8A81282F30E081E090E03F
:10162000022E02C0880F991F0A94E2F7842B8C9334
:1016300098C0AAE3B0E0EAE3F0E08081482F8A8115
:10164000282F30E081E090E0022E02C0880F991F21
:101650000A94E2F7809584238C9383C08B81813038
:10166000A1F4A7E3B0E0E7E3F0E08081482F8A81AE
:10167000282F30E081E090E0022E02C0880F991FF1
:101680000A94E2F7842B8C936CC0A7E3B0E0E7E305
:10169000F0E08081482F8A81282F30E081E090E0BF
:1016A000022E02C0880F991F0A94E2F780958423C6
:1016B0008C9357C08B818130A1F4A4E3B0E0E4E3C4
:1016C000F0E08081482F8A81282F30E081E090E08F
:1016D000022E02C0880F991F0A94E2F7842B8C9384
:1016E00040C0A4E3B0E0E4E3F0E08081482F8A81C9
:1016F000282F30E081E090E0022E02C0880F991F71
:101700000A94E2F7809584238C932BC08B818130DF
:10171000A1F4A1E3B0E0E1E3F0E08081482F8A8109
:10172000282F30E081E090E0022E02C0880F991F40
:101730000A94E2F7842B8C9314C0A1E3B0E0E1E3B8
:10174000F0E08081482F8A81282F30E081E090E00E
:10175000022E02C0880F991F0A94E2F78095842315
:101760008C930F900F900F900F900F90CF91DF916F
:101770000895DF93CF9300D000D00F92CDB7DEB79E
:1017800089836A834B838A81883008F0D5C0898138
:10179000843008F0D1C08981282F30E03D832C832C
:1017A0008C819D818130910509F443C02C813D815C
:1017B000223031052CF48C819D81009771F0BCC0E2
:1017C0002C813D812230310509F45FC08C819D81DF
:1017D0008330910509F485C0AFC08B818130A1F4BD
:1017E000ABE3B0E0EBE3F0E08081482F8A81282F63
:1017F00030E081E090E0022E02C0880F991F0A9429
:10180000E2F7842B8C9398C0ABE3B0E0EBE3F0E01D
:101810008081482F8A81282F30E081E090E0022EDD
:1018200002C0880F991F0A94E2F7809584238C9355
:1018300083C08B818130A1F4A8E3B0E0E8E3F0E05D
:101840008081482F8A81282F30E081E090E0022EAD
:1018500002C0880F991F0A94E2F7842B8C936CC006
:10186000A8E3B0E0E8E3F0E08081482F8A81282FE8
:1018700030E081E090E0022E02C0880F991F0A94A8
:10188000E2F7809584238C9357C08B818130A1F43B
:10189000A5E3B0E0E5E3F0E08081482F8A81282FBE
:1018A00030E081E090E0022E02C0880F991F0A9478
:1018B000E2F7842B8C9340C0A5E3B0E0E5E3F0E0D1
:1018C0008081482F8A81282F30E081E090E0022E2D
:1018D00002C0880F991F0A94E2F7809584238C93A5
:1018E0002BC08B818130A1F4A2E3B0E0E2E3F0E011
:1018F0008081482F8A81282F30E081E090E0022EFD
:1019000002C0880F991F0A94E2F7842B8C9314C0AD
:10191000A2E3B0E0E2E3F0E08081482F8A81282F43
:1019200030E081E090E0022E02C0880F991F0A94F7
:10193000E2F7809584238C930F900F900F900F9077
:101940000F90CF91DF910895DF93CF9300D000D017
:101950000F92CDB7DEB78A836B8319828B81883073
:1019600008F084C08A81843008F080C08A81282FE2
:1019700030E03D832C834C815D814130510579F10C
:101980008C819D818230910534F42C813D8121151B
:10199000310569F06BC04C815D8142305105B9F170
:1019A0008C819D818330910509F449C05FC0E9E3D2
:1019B000F0E08081282F30E08B81882F90E0A90112
:1019C00002C0559547958A95E2F7CA0181709070DB
:1019D000882319F081E0898349C0198247C0E6E372
:1019E000F0E08081282F30E08B81882F90E0A901E2
:1019F00002C0559547958A95E2F7CA0181709070AB
:101A0000882319F081E0898331C019822FC0E3E374
:101A1000F0E08081282F30E08B81882F90E0A901B1
:101A200002C0559547958A95E2F7CA01817090707A
:101A3000882319F081E0898319C0198217C0E0E377
:101A4000F0E08081282F30E08B81882F90E0A90181
:101A500002C0559547958A95E2F7CA01817090704A
:101A6000882319F081E0898301C0198289810F9050
:101A70000F900F900F900F90CF91DF910895DF930B
:101A8000CF9300D000D0CDB7DEB789836A83898138
:101A9000843090F58981282F30E03C832B838B8123
:101AA0009C8181309105D1F02B813C812230310520
:101AB0002CF48B819C81009761F01EC02B813C81AE
:101AC0002230310581F08B819C818330910581F03A
:101AD00013C0EAE3F0E08A8180830EC0E7E3F0E020
:101AE0008A81808309C0E4E3F0E08A81808304C0B6
:101AF000E1E3F0E08A8180830F900F900F900F90C8
:101B0000CF91DF910895DF93CF9300D000D0CDB770
:101B1000DEB789836A838981843090F58981282F93
:101B200030E03C832B838B819C8181309105D1F007
:101B30002B813C81223031052CF48B819C810097D4
:101B400061F01EC02B813C812230310581F08B81F8
:101B50009C818330910581F013C0EBE3F0E08A8132
:101B600080830EC0E8E3F0E08A81808309C0E5E36A
:101B7000F0E08A81808304C0E2E3F0E08A81808320
:101B80000F900F900F900F90CF91DF910895DF93FA
:101B9000CF9300D000D0CDB7DEB78A8319828A8177
:101BA000843090F58A81282F30E03C832B838B8111
:101BB0009C8181309105D1F02B813C81223031050F
:101BC0002CF48B819C81009761F01EC02B813C819D
:101BD0002230310581F08B819C818330910581F029
:101BE00013C0E9E3F0E0808189830EC0E6E3F0E012
:101BF0008081898309C0E3E3F0E08081898304C0A8
:101C0000E0E3F0E08081898389810F900F900F904D
:101C10000F90CF91DF910895DF93CF93CDB7DEB7CB
:101C200060970FB6F894DEBF0FBECDBF82E060E0D4
:101C300040E00E94CE0A82E061E040E00E94CE0ACD
:101C400082E062E040E00E94CE0A82E063E040E091
:101C50000E94CE0A82E064E040E00E94CE0A82E068
:101C600065E040E00E94CE0A82E066E040E00E942B
:101C7000CE0A82E067E040E00E94CE0A1F86ABC039
:101C800082E06F8541E00E94CE0A82E06F8540E0ED
:101C90000E94B90B80E090E0A0EAB0E48B879C87BB
:101CA000AD87BE876B857C858D859E8520E030E085
:101CB0004AEF54E40E941F02DC01CB018F83988716
:101CC000A987BA876F81788589859A8520E030E079
:101CD00040E85FE30E94790388232CF481E090E0E0
:101CE0009E838D833FC06F81788589859A8520E0AA
:101CF0003FEF4FE757E40E94190318164CF56B8528
:101D00007C858D859E8520E030E040E251E40E9494
:101D10001F02DC01CB01BC01CD010E944900DC01A6
:101D2000CB019E838D830FC088EC90E09C838B83D6
:101D30008B819C810197F1F79C838B838D819E81A0
:101D400001979E838D838D819E81009769F714C0D2
:101D50006F81788589859A850E944900DC01CB01D5
:101D60009E838D838D819E819A83898389819A81C7
:101D70000197F1F79A838983188A22C08889982F5E
:101D80009C5F82E0692F0E94A40C8823B1F48F85A8
:101D9000882F90E0880F991F880F991F982F8889A6
:101DA000890F8F5F0E94F00E60960FB6F894DEBF29
:101DB0000FBECDBFCF91DF91089588898F5F888B4B
:101DC00088898430D8F282E06F8540E00E94CE0A94
:101DD0008F858F5F8F878F85843008F451CF4ECFEA
:101DE000DF93CF9300D000D0CDB7DEB78A831982BE
:101DF0008A81282F30E03C832B838B819C81883023
:101E0000910509F470C02B813C81293031055CF5C6
:101E10008B819C818430910509F459C02B813C81D0
:101E2000253031059CF48B819C818230910509F429
:101E300048C02B813C81233031050CF045C08B819B
:101E40009C818130910509F439C068C02B813C81A7
:101E50002630310509F441C08B819C818730910582
:101E60000CF03EC037C02B813C812C30310509F489
:101E700046C08B819C818D3091055CF42B813C8127
:101E80002A303105B1F18B819C818B309105A4F50D
:101E90002DC02B813C812E303105B9F18B819C8185
:101EA0008E3091057CF12B813C812F30310581F101
:101EB0008B819C818031910571F130C087E38983EA
:101EC0002FC088E389832CC089E3898329C085E2F8
:101ED000898326C084E3898323C085E3898320C066
:101EE00086E389831DC08AE289831AC081E38983DE
:101EF00017C082E3898314C083E3898311C08DE214
:101F000089830EC08DE089830BC080E3898308C07C
:101F10008DE3898305C08BE2898302C08A8189832E
:101F200089810F900F900F900F90CF91DF910895BE
:101F3000DF93CF93CDB7DEB72E970FB6F894DEBF01
:101F40000FBECDBF81E060E041E00E94CE0A81E09B
:101F500061E041E00E94CE0A80E090E0A0EAB1E4B6
:101F60008B879C87AD87BE876B857C858D859E859D
:101F700020E030E04AEF54E40E941F02DC01CB0174
:101F80008F839887A987BA876F81788589859A8595
:101F900020E030E040E85FE30E94790388232CF4DE
:101FA00081E090E09E838D833FC06F817885898535
:101FB0009A8520E03FEF4FE757E40E941903181677
:101FC0004CF56B857C858D859E8520E030E040E278
:101FD00051E40E941F02DC01CB01BC01CD010E9433
:101FE0004900DC01CB019E838D830FC088EC90E01B
:101FF0009C838B838B819C810197F1F79C838B83DE
:102000008D819E8101979E838D838D819E81009716
:1020100069F714C06F81788589859A850E94490087
:10202000DC01CB019E838D838D819E819A83898380
:1020300089819A810197F1F79A83898381E063E02E
:1020400041E00E94CE0A81E064E041E00E94CE0AB5
:1020500081E065E041E00E94CE0A81E066E041E077
:102060000E94CE0A83E30E944A1082E30E944A1033
:1020700088E20E944A108CE00E944A1081E00E948F
:102080004A102E960FB6F894DEBF0FBECDBFCF918B
:10209000DF9108950F931F93DF93CF93CDB7DEB7F2
:1020A000C356D0400FB6F894DEBF0FBECDBFFE01C1
:1020B000ED59FF4F808381E060E040E00E94B90B62
:1020C000FE01E15AFF4F80E090E0A0E8BFE380838B
:1020D0009183A283B3838E01055A1F4FFE01E15AFB
:1020E000FF4F608171818281938120E030E04AEF6F
:1020F00054E40E941F02DC01CB01F801808391832C
:10210000A283B383FE01E55AFF4F60817181828112
:10211000938120E030E040E85FE30E947903882368
:1021200044F4FE01E75AFF4F81E090E09183808301
:1021300064C0FE01E55AFF4F608171818281938105
:1021400020E03FEF4FE757E40E94190318160CF008
:1021500043C0FE01E15AFF4F60817181828193810A
:1021600020E030E040E251E40E941F02DC01CB019C
:102170008E01075A1F4FBC01CD010E944900DC01AE
:10218000CB01F801918380831FC0FE01E95AFF4F04
:1021900088EC90E091838083FE01E95AFF4F8081B3
:1021A00091810197F1F7FE01E95AFF4F91838083F6
:1021B000DE01A75ABF4FFE01E75AFF4F8081918190
:1021C000019711969C938E93FE01E75AFF4F8081F1
:1021D00091810097D1F627C08E01075A1F4FFE014B
:1021E000E55AFF4F60817181828193810E9449008D
:1021F000DC01CB01F80191838083DE01AB5ABF4F34
:10220000FE01E75AFF4F808191818D939C93FE01DF
:10221000EB5AFF4F808191810197F1F7FE01EB5A54
:10222000FF4F9183808381E061E041E00E94B90B20
:10223000FE01EF5AFF4F80E090E0A0E8BFE380830B
:102240009183A283B3838E01035B1F4FFE01EF5A7C
:10225000FF4F608171818281938120E030E04AEFFD
:1022600054E40E941F02DC01CB01F80180839183BA
:10227000A283B383FE01E35BFF4F608171818281A2
:10228000938120E030E040E85FE30E9479038823F7
:1022900044F4FE01E55BFF4F81E090E09183808391
:1022A00064C0FE01E35BFF4F608171818281938195
:1022B00020E03FEF4FE757E40E94190318160CF097
:1022C00043C0FE01EF5AFF4F60817181828193818B
:1022D00020E030E040E251E40E941F02DC01CB012B
:1022E0008E01055B1F4FBC01CD010E944900DC013E
:1022F000CB01F801918380831FC0FE01E75BFF4F94
:1023000088EC90E091838083FE01E75BFF4F808142
:1023100091810197F1F7FE01E75BFF4F9183808385
:10232000DE01A55BBF4FFE01E55BFF4F8081918120
:10233000019711969C938E93FE01E55BFF4F808180
:1023400091810097D1F627C08E01055B1F4FFE01DA
:10235000E35BFF4F60817181828193810E9449001C
:10236000DC01CB01F80191838083DE01A95BBF4FC3
:10237000FE01E55BFF4F808191818D939C93FE016F
:10238000E95BFF4F808191810197F1F7FE01E95BE5
:10239000FF4F91838083FE01ED59FF4F8081882F8D
:1023A00090E0807190709595879595958795959516
:1023B000879595958795982F81E063E0492F0E9436
:1023C000B90BFE01ED59FF4F8081882F90E080729C
:1023D0009070959587959595879595958795959501
:1023E000879595958795982F81E064E0492F0E9405
:1023F000B90BFE01ED59FF4F8081882F90E080746A
:102400009070082E892F000C881F990B000C881FD4
:10241000991F982F81E065E0492F0E94B90BFE01BA
:10242000ED59FF4F8081982F991F9927991F81E0BF
:1024300066E0492F0E94B90BFE01ED5BFF4F80E083
:1024400090E0A0E8BFE380839183A283B3838E01F1
:10245000015C1F4FFE01ED5BFF4F60817181828146
:10246000938120E030E04AEF54E40E941F02DC0137
:10247000CB01F80180839183A283B383FE01FF9691
:10248000608171818281938120E030E040E85FE3E8
:102490000E94790388232CF481E090E09EAF8DAFF9
:1024A00046C0FE01FF96608171818281938120E0A8
:1024B0003FEF4FE757E40E941903181664F5FE0139
:1024C000ED5BFF4F608171818281938120E030E07C
:1024D00040E251E40E941F02DC01CB01BC01CD01AE
:1024E0000E944900DC01CB019EAF8DAF0FC088EC8C
:1024F00090E09CAF8BAF8BAD9CAD0197F1F79CAF9B
:102500008BAF8DAD9EAD01979EAF8DAF8DAD9EAD66
:10251000009769F716C0FE01FF9660817181828184
:1025200093810E944900DC01CB019EAF8DAF8DAD40
:102530009EAD9AAF89AF89AD9AAD0197F1F79AAF89
:1025400089AF81E061E040E00E94B90B80E090E05B
:10255000A0E8BFE38DAB9EABAFABB8AF6DA97EA9D2
:102560008FA998AD20E030E04AEF54E40E941F02AA
:10257000DC01CB0189AB9AABABABBCAB69A97AA947
:102580008BA99CA920E030E040E85FE30E9479033A
:1025900088232CF481E090E098AB8FA73FC069A915
:1025A0007AA98BA99CA920E03FEF4FE757E40E944E
:1025B000190318164CF56DA97EA98FA998AD20E0D6
:1025C00030E040E251E40E941F02DC01CB01BC017B
:1025D000CD010E944900DC01CB0198AB8FA70FC051
:1025E00088EC90E09EA78DA78DA59EA50197F1F799
:1025F0009EA78DA78FA598A9019798AB8FA78FA5A8
:1026000098A9009769F714C069A97AA98BA99CA910
:102610000E944900DC01CB0198AB8FA78FA598A938
:102620009CA78BA78BA59CA50197F1F79CA78BA7CF
:1026300081E061E041E00E94B90B80E090E0A0E819
:10264000BFE38FA398A7A9A7BAA76FA178A589A56B
:102650009AA520E030E04AEF54E40E941F02DC011A
:10266000CB018BA39CA3ADA3BEA36BA17CA18DA129
:102670009EA120E030E040E85FE30E9479038823D8
:102680002CF481E090E09AA389A33FC06BA17CA1C8
:102690008DA19EA120E03FEF4FE757E40E94190370
:1026A00018164CF56FA178A589A59AA520E030E011
:1026B00040E251E40E941F02DC01CB01BC01CD01CC
:1026C0000E944900DC01CB019AA389A30FC088ECCA
:1026D00090E098A38F8F8F8D98A10197F1F798A321
:1026E0008F8F89A19AA101979AA389A389A19AA101
:1026F000009769F714C06BA17CA18DA19EA10E94D7
:102700004900DC01CB019AA389A389A19AA19E8FDC
:102710008D8F8D8D9E8D0197F1F79E8F8D8FFE0190
:10272000ED59FF4F8081982F917081E063E0492F30
:102730000E94B90BFE01ED59FF4F8081882F90E078
:102740008270907095958795982F81E064E0492F6D
:102750000E94B90BFE01ED59FF4F8081882F90E058
:10276000847090709595879595958795982F81E0C1
:1027700065E0492F0E94B90BFE01ED59FF4F8081A2
:10278000882F90E08870907095958795959587959E
:1027900095958795982F81E066E0492F0E94B90BA7
:1027A00080E090E0A0E8BFE3898F9A8FAB8FBC8F69
:1027B000698D7A8D8B8D9C8D20E030E04AEF54E45A
:1027C0000E941F02DC01CB018D8B9E8BAF8BB88FDB
:1027D0006D897E898F89988D20E030E040E85FE345
:1027E0000E94790388232CF481E090E09C8B8B8BF2
:1027F0003FC06D897E898F89988D20E03FEF4FE73C
:1028000057E40E94190318164CF5698D7A8D8B8D4B
:102810009C8D20E030E040E251E40E941F02DC0188
:10282000CB01BC01CD010E944900DC01CB019C8B96
:102830008B8B0FC088EC90E09A8B898B89899A8961
:102840000197F1F79A8B898B8B899C8901979C8BD7
:102850008B8B8B899C89009769F714C06D897E8961
:102860008F89988D0E944900DC01CB019C8B8B8B5A
:102870008B899C89988B8F878F8598890197F1F731
:10288000988B8F8781E061E040E00E94B90B80E087
:1028900090E0A0E8BFE38B879C87AD87BE876B8500
:1028A0007C858D859E8520E030E04AEF54E40E94CF
:1028B0001F02DC01CB018F839887A987BA876F81BC
:1028C000788589859A8520E030E040E85FE30E94C2
:1028D000790388232CF481E090E09E838D833FC0B0
:1028E0006F81788589859A8520E03FEF4FE757E42F
:1028F0000E94190318164CF56B857C858D859E8585
:1029000020E030E040E251E40E941F02DC01CB01F4
:10291000BC01CD010E944900DC01CB019E838D8367
:102920000FC088EC90E09C838B838B819C81019706
:10293000F1F79C838B838D819E8101979E838D838C
:102940008D819E81009769F714C06F817885898594
:102950009A850E944900DC01CB019E838D838D8185
:102960009E819A83898389819A810197F1F79A835D
:102970008983CD59DF4F0FB6F894DEBF0FBECDBFB0
:10298000CF91DF911F910F9108950F931F93DF93C4
:10299000CF93CDB7DEB7C356D0400FB6F894DEBFA5
:1029A0000FBECDBFFE01ED59FF4F808381E060E097
:1029B00041E00E94B90BFE01E15AFF4F80E090E038
:1029C000A0E8BFE380839183A283B3838E01055A7D
:1029D0001F4FFE01E15AFF4F608171818281938117
:1029E00020E030E04AEF54E40E941F02DC01CB01FA
:1029F000F80180839183A283B383FE01E55AFF4FE0
:102A0000608171818281938120E030E040E85FE362
:102A10000E947903882344F4FE01E75AFF4F81E0C6
:102A200090E09183808364C0FE01E55AFF4F60818E
:102A300071818281938120E03FEF4FE757E40E944C
:102A4000190318160CF043C0FE01E15AFF4F6081D4
:102A500071818281938120E030E040E251E40E9464
:102A60001F02DC01CB018E01075A1F4FBC01CD01B3
:102A70000E944900DC01CB01F801918380831FC0D3
:102A8000FE01E95AFF4F88EC90E091838083FE01BC
:102A9000E95AFF4F808191810197F1F7FE01E95AD0
:102AA000FF4F91838083DE01A75ABF4FFE01E75A93
:102AB000FF4F80819181019711969C938E93FE0127
:102AC000E75AFF4F808191810097D1F627C08E0190
:102AD000075A1F4FFE01E55AFF4F608171818281C5
:102AE00093810E944900DC01CB01F801918380832E
:102AF000DE01AB5ABF4FFE01E75AFF4F8081918143
:102B00008D939C93FE01EB5AFF4F80819181019739
:102B1000F1F7FE01EB5AFF4F9183808381E061E082
:102B200041E00E94B90BFE01EF5AFF4F80E090E0B8
:102B3000A0E8BFE380839183A283B3838E01035B0C
:102B40001F4FFE01EF5AFF4F608171818281938197
:102B500020E030E04AEF54E40E941F02DC01CB0188
:102B6000F80180839183A283B383FE01E35BFF4F6F
:102B7000608171818281938120E030E040E85FE3F1
:102B80000E947903882344F4FE01E55BFF4F81E056
:102B900090E09183808364C0FE01E35BFF4F60811E
:102BA00071818281938120E03FEF4FE757E40E94DB
:102BB000190318160CF043C0FE01EF5AFF4F608155
:102BC00071818281938120E030E040E251E40E94F3
:102BD0001F02DC01CB018E01055B1F4FBC01CD0143
:102BE0000E944900DC01CB01F801918380831FC062
:102BF000FE01E75BFF4F88EC90E091838083FE014C
:102C0000E75BFF4F808191810197F1F7FE01E75B60
:102C1000FF4F91838083DE01A55BBF4FFE01E55B23
:102C2000FF4F80819181019711969C938E93FE01B5
:102C3000E55BFF4F808191810097D1F627C08E011F
:102C4000055B1F4FFE01E35BFF4F60817181828155
:102C500093810E944900DC01CB01F80191838083BC
:102C6000DE01A95BBF4FFE01E55BFF4F80819181D3
:102C70008D939C93FE01E95BFF4F808191810197C9
:102C8000F1F7FE01E95BFF4F91838083FE01ED596F
:102C9000FF4F8081882F90E0807190709595879587
:102CA000959587959595879595958795982F81E02A
:102CB00063E0492F0E94B90BFE01ED59FF4F80815F
:102CC000882F90E08072907095958795959587955F
:102CD000959587959595879595958795982F81E0FA
:102CE00064E0492F0E94B90BFE01ED59FF4F80812E
:102CF000882F90E080749070082E892F000C881F18
:102D0000990B000C881F991F982F81E065E0492FCF
:102D10000E94B90BFE01ED59FF4F8081982F991F3A
:102D20009927991F81E066E0492F0E94B90BFE01A7
:102D3000ED5BFF4F80E090E0A0E8BFE380839183EC
:102D4000A283B3838E01015C1F4FFE01ED5BFF4F39
:102D5000608171818281938120E030E04AEF54E408
:102D60000E941F02DC01CB01F80180839183A283C2
:102D7000B383FE01FF96608171818281938120E09F
:102D800030E040E85FE30E94790388232CF481E07F
:102D900090E09EAF8DAF46C0FE01FF9660817181CD
:102DA0008281938120E03FEF4FE757E40E941903AF
:102DB000181664F5FE01ED5BFF4F60817181828121
:102DC000938120E030E040E251E40E941F02DC01E8
:102DD000CB01BC01CD010E944900DC01CB019EAFBB
:102DE0008DAF0FC088EC90E09CAF8BAF8BAD9CADEE
:102DF0000197F1F79CAF8BAF8DAD9EAD01979EAF64
:102E00008DAF8DAD9EAD009769F716C0FE01FF96A0
:102E100060817181828193810E944900DC01CB0134
:102E20009EAF8DAF8DAD9EAD9AAF89AF89AD9AAD96
:102E30000197F1F79AAF89AF81E061E040E00E942D
:102E4000B90B80E090E0A0E8BFE38DAB9EABAFABE9
:102E5000B8AF6DA97EA98FA998AD20E030E04AEF08
:102E600054E40E941F02DC01CB0189AB9AABABABEF
:102E7000BCAB69A97AA98BA99CA920E030E040E805
:102E80005FE30E94790388232CF481E090E098AB03
:102E90008FA73FC069A97AA98BA99CA920E03FEF21
:102EA0004FE757E40E94190318164CF56DA97EA947
:102EB0008FA998AD20E030E040E251E40E941F026B
:102EC000DC01CB01BC01CD010E944900DC01CB013A
:102ED00098AB8FA70FC088EC90E09EA78DA78DA51B
:102EE0009EA50197F1F79EA78DA78FA598A9019799
:102EF00098AB8FA78FA598A9009769F714C069A907
:102F00007AA98BA99CA90E944900DC01CB0198AB4E
:102F10008FA78FA598A99CA78BA78BA59CA5019788
:102F2000F1F79CA78BA781E061E041E00E94B90B1B
:102F300080E090E0A0E8BFE38FA398A7A9A7BAA775
:102F40006FA178A589A59AA520E030E04AEF54E466
:102F50000E941F02DC01CB018BA39CA3ADA3BEA3E7
:102F60006BA17CA18DA19EA120E030E040E85FE351
:102F70000E94790388232CF481E090E09AA389A32E
:102F80003FC06BA17CA18DA19EA120E03FEF4FE748
:102F900057E40E94190318164CF56FA178A589A56E
:102FA0009AA520E030E040E251E40E941F02DC01DB
:102FB000CB01BC01CD010E944900DC01CB019AA3E9
:102FC00089A30FC088EC90E098A38F8F8F8D98A174
:102FD0000197F1F798A38F8F89A19AA101979AA3DE
:102FE00089A389A19AA1009769F714C06BA17CA15C
:102FF0008DA19EA10E944900DC01CB019AA389A367
:1030000089A19AA19E8F8D8F8D8D9E8D0197F1F74D
:103010009E8F8D8FFE01ED59FF4F8081982F91700B
:1030200081E063E0492F0E94B90BFE01ED59FF4F8B
:103030008081882F90E08270907095958795982F69
:1030400081E064E0492F0E94B90BFE01ED59FF4F6A
:103050008081882F90E084709070959587959595E4
:103060008795982F81E065E0492F0E94B90BFE01FA
:10307000ED59FF4F8081882F90E088709070959572
:1030800087959595879595958795982F81E066E02A
:10309000492F0E94B90B80E090E0A0E8BFE3898F40
:1030A0009A8FAB8FBC8F698D7A8D8B8D9C8D20E034
:1030B00030E04AEF54E40E941F02DC01CB018D8B0B
:1030C0009E8BAF8BB88F6D897E898F89988D20E01C
:1030D00030E040E85FE30E94790388232CF481E02C
:1030E00090E09C8B8B8B3FC06D897E898F89988DFA
:1030F00020E03FEF4FE757E40E94190318164CF504
:10310000698D7A8D8B8D9C8D20E030E040E251E41A
:103110000E941F02DC01CB01BC01CD010E944900CD
:10312000DC01CB019C8B8B8B0FC088EC90E09A8BE1
:10313000898B89899A890197F1F79A8B898B8B8979
:103140009C8901979C8B8B8B8B899C89009769F755
:1031500014C06D897E898F89988D0E944900DC0199
:10316000CB019C8B8B8B8B899C89988B8F878F85D0
:1031700098890197F1F7988B8F8781E061E040E0B3
:103180000E94B90B80E090E0A0E8BFE38B879C87AA
:10319000AD87BE876B857C858D859E8520E030E080
:1031A0004AEF54E40E941F02DC01CB018F83988711
:1031B000A987BA876F81788589859A8520E030E074
:1031C00040E85FE30E94790388232CF481E090E0DB
:1031D0009E838D833FC06F81788589859A8520E0A5
:1031E0003FEF4FE757E40E94190318164CF56B8523
:1031F0007C858D859E8520E030E040E251E40E9490
:103200001F02DC01CB01BC01CD010E944900DC01A1
:10321000CB019E838D830FC088EC90E09C838B83D1
:103220008B819C810197F1F79C838B838D819E819B
:1032300001979E838D838D819E81009769F714C0CD
:103240006F81788589859A850E944900DC01CB01D0
:103250009E838D838D819E819A83898389819A81C2
:103260000197F1F79A838983CD59DF4F0FB6F89410
:10327000DEBF0FBECDBFCF91DF911F910F9108959B
:10328000DF93CF9300D00F92CDB7DEB79B838A83B5
:1032900019820EC08981282F30E08A819B81FC0130
:1032A000E20FF31F80810E94C51489818F5F89839B
:1032B0008981282F30E08A819B81FC01E20FF31F76
:1032C0008081882339F70F900F900F90CF91DF9175
:1032D0000895DF93CF9300D000D00F92CDB7DEB723
:1032E0008A836B838A81282F30E03D832C838C81F5
:1032F0009D8181309105C1F02C813D8122303105C5
:103300002CF48C819D81009761F019C02C813D8146
:103310002230310569F08C819D818330910561F007
:103320000EC08B8189830BC08B81805C898307C031
:103330008B81805F898303C08B81805B89838981D6
:1033400080680E944A100F900F900F900F900F907E
:10335000CF91DF910895DF93CF9300D000D0CDB708
:10336000DEB789836A835C834B8389816A810E948B
:1033700069198B819C810E9440190F900F900F90CA
:103380000F90CF91DF910895DF93CF93CDB7DEB744
:1033900062970FB6F894DEBF0FBECDBF9A8B898BB4
:1033A00089899A899E012F5F3F4FB9014AE050E019
:1033B0000E943E1CCE0101960E94401962960FB6F3
:1033C000F894DEBF0FBECDBFCF91DF910895DF939C
:1033D000CF93CDB7DEB781E00E944A10CF91DF9145
:1033E00008951F920F920FB60F9211242F933F93BF
:1033F0004F935F936F937F938F939F93AF93BF93FD
:10340000EF93FF93DF93CF93CDB7DEB78091750134
:1034100090917601009729F0E0917501F091760185
:103420000995CF91DF91FF91EF91BF91AF919F915E
:103430008F917F916F915F914F913F912F910F905D
:103440000FBE0F901F9018951F920F920FB60F92FC
:1034500011242F933F934F935F936F937F938F9399
:103460009F93AF93BF93EF93FF93DF93CF93CDB72A
:10347000DEB78091750190917601009729F0E09177
:103480007501F09176010995CF91DF91FF91EF9150
:10349000BF91AF919F918F917F916F915F914F916C
:1034A0003F912F910F900FBE0F901F901895DF93B3
:1034B000CF9300D000D0CDB7DEB79A838983E9815E
:1034C000FA818581282F30E03C832B838B819C817E
:1034D000009731F02B813C8121303105A9F02EC0BD
:1034E000ACE4B0E0E981FA818081918111969C93EE
:1034F0008E93EFE4F0E01082A9E5B0E0E9E5F0E0BA
:10350000808184608C931AC0AAE4B0E0E981FA81DA
:103510008281938111969C938E93EFE4F0E0108268
:10352000AEE4B0E0EEE4F0E0808188608C93A9E541
:10353000B0E0E9E5F0E0808180618C93AEE4B0E03A
:10354000EEE4F0E08081982F987FE981FA81848110
:10355000892B8C930F900F900F900F90CF91DF914C
:103560000895DF93CF93CDB7DEB7EFE4F0E010829C
:10357000EEE4F0E01082ECE4F0E011821082A9E5C4
:10358000B0E0E9E5F0E080818B7F8C93A9E5B0E0C5
:10359000E9E5F0E080818F7E8C93CF91DF910895F3
:1035A000DF93CF9300D0CDB7DEB79A83898389812B
:1035B0009A81009731F089819A8190937601809366
:1035C00075010F900F90CF91DF910895DF93CF9306
:1035D00000D000D0CDB7DEB79C838B831A821982CE
:1035E000EBE2F0E082E08083EAE2F0E088E18083D1
:1035F000A0E4B0E0EB81FC818081882F90E0880F0F
:10360000991F282F2068EB81FC818181882F90E011
:1036100082959295907F9827807F9827282BEB8121
:10362000FC818281882F90E0880F991F880F991F55
:10363000880F991F822B8C93EB81FC81838194816D
:10364000CC01A0E0B0E0880F991FAA1FBB1F880F14
:10365000991FAA1FBB1F880F991FAA1FBB1F9C0180
:10366000AD0180E092E1AAE7B0E0BC01CD010E948B
:10367000E51BDA01C90101979A838983E0E4F0E050
:1036800089819A81892F99278083E9E2F0E08981F5
:1036900080830F900F900F900F90CF91DF9108953E
:1036A000DF93CF930F92CDB7DEB78983EBE2F0E0E3
:1036B0008081882F90E0807290700097B9F3ECE2DF
:1036C000F0E0898180830F90CF91DF910895DF939F
:1036D000CF93CDB7DEB7EBE2F0E080818823DCF753
:1036E000ECE2F0E08081CF91DF910895DF93CF93FA
:1036F00000D00F92CDB7DEB79B838A8319820EC0AC
:103700008981282F30E08A819B81FC01E20FF31F21
:1037100080810E94501B89818F5F89838981282F36
:1037200030E08A819B81FC01E20FF31F80818823B6
:1037300039F783E20E94501B0F900F900F90CF91AA
:10374000DF9108950F931F93DF93CF9300D00F92D3
:10375000CDB7DEB79B838A8319828981282F30E019
:103760008A819B818C01020F131F0E94671BF80145
:1037700080830FC089818F5F89838981282F30E002
:103780008A819B818C01020F131F0E94671BF80125
:1037900080838981282F30E08A819B81FC01E20FA0
:1037A000F31F8081833231F78981282F30E08A81AD
:1037B0009B81FC01E20FF31F10820F900F900F907E
:1037C000CF91DF911F910F910895A1E21A2EAA1BAC
:1037D000BB1BFD010DC0AA1FBB1FEE1FFF1FA217C1
:1037E000B307E407F50720F0A21BB30BE40BF50BBE
:1037F000661F771F881F991F1A9469F76095709547
:10380000809590959B01AC01BD01CF0108952F9249
:103810003F924F925F926F927F928F929F92AF9260
:10382000BF92CF92DF92EF92FF920F931F93CF93AD
:10383000DF93CDB7DEB7CA1BDB0B0FB6F894DEBF44
:103840000FBECDBF09942A88398848885F846E846A
:103850007D848C849B84AA84B984C884DF80EE80B4
:10386000FD800C811B81AA81B981CE0FD11D0FB6BD
:10387000F894DEBF0FBECDBFED010895FB019F019F
:10388000E8944230C4F04532B4F44A3029F497FB4E
:103890001EF4909581959F4F642F77270E946F1C8F
:1038A000805D8A330CF0895D8193CB010097A1F78D
:1038B00016F45DE251931082C9010C945F1CDC0187
:1038C000FC01672F71917723E1F7329704C07C9157
:1038D0006D9370836291AE17BF07C8F30895AA1B5A
:1038E000BB1B51E107C0AA1FBB1FA617B70710F0EB
:1038F000A61BB70B881F991F5A95A9F7809590951D
:0A390000BC01CD010895F894FFCF3B
:10390A00202B203A204F70656E20446F6F72002082
:10391A002D203A204368616E6765205061737300F9
:10392A00506C7A20656E74657220706173733A20E8
:10393A0000506C7A2072652D656E74657220746809
:10394A00650073616D6520706173733A200045727A
:10395A00726F72212120004E4F54204D415443482A
:10396A004544005061737320736574005375636333
:10397A0065737366756C6C790041434345535320F4
:10398A004752414E54454400414343455353204412
:10399A00454E49454400446F6F7220697320556E45
:1039AA006C6F636B696E6700446F6F72206C6F6334
:1039BA006B7320696E003300446F6F722069732045
:1039CA006C6F636B696E672020004D41582054521A
:1039DA0049414C5320555345440053595354454D7E
:1039EA00204953204C4F434B454400506C7A206584
:1039FA006E74657220706173733A000000000000F3
:103A0A000000000300008025E803E2E40501E80362
:043A1A00851E0501FF
:00000001FF
